:020000040800F2
:10000000008001207D1E0008B11E0008B11E0008FE
:10001000B11E0008B11E0008B11E0008000000005B
:10002000000000000000000000000000B11E0008F9
:10003000B11E000800000000B11E0008B11E00083B
:10004000B11E0008B11E0008B11E0008B11E000854
:10005000B11E0008B11E0008B11E0008B11E000844
:10006000B11E0008B11E0008B11E0008B11E000834
:10007000B11E0008B11E0008B11E0008B11E000824
:10008000B11E0008B11E0008B11E000800000000EB
:10009000000000000000000000000000B11E000889
:1000A000B11E0008B11E0008B11E0008B11E0008F4
:1000B000B11E0008B11E0008B11E0008B11E0008E4
:1000C000B11E0008B11E0008B11E0008B11E0008D4
:1000D000B11E0008B11E0008B11E0008000000009B
:1000E000B11E0008B11E0008B11E0008000000008B
:1000F000000000000000000000000000B11E000829
:1001000000000000B11E0008B11E0008B11E00086A
:1001100000000000000000000000000000000000DF
:10012000B11E0008B11E0008B11E0008B11E000873
:10013000B11E0008000000000000000000000000E8
:10014000000000000000000000000000B11E0008D8
:10015000B11E0008B11E0008B11E0008B11E000843
:10016000B11E0008B11E00080000000000000000E1
:10017000000000000000000000000000000000007F
:1001800000000000B11E0008000000000000000098
:10019000B11E000810B5054C237833B9044B13B1D8
:1001A0000448AFF300800123237010BD680B0020CA
:1001B0000000000014FB0008084B10B51BB10849F3
:1001C0000848AFF300800848036803B910BD074B27
:1001D000002BFBD0BDE81040184700BF0000000016
:1001E0006C0B002014FB0008640B002000000000D2
:1001F000154B002B08BF134B9D46A3F5803A0021F9
:100200008B460F461348144A121A05F0C7F80F4BD5
:10021000002B00D098470E4B002B00D098470020B1
:10022000002104000D000D48002802D00C4801F008
:100230004EFC04F0FBFB2000290001F008FC01F05B
:1002400043FC00BF00000800008001200000000007
:10025000411A0008680B0020AC170020CF1A0008D4
:100260000000000073B5044615461E4600F03CF839
:10027000BDF91C3000933246BDF91830294604F10F
:100280001C0000F0F5F8204602B070BD10B5044621
:100290001C3000F09BF8204600F046F8204610BDC8
:1002A00007EE901AB3EE097AF4EEC77AF1EE10FA7F
:1002B00006D9BBEE097AF4EEC77AF1EE10FA03DB49
:1002C00017EE901A00F034B87047000006EE901A4E
:1002D000DFED047A86EEA77A1C3017EE101A00F0D4
:1002E0009FB800BF0000C84238B504460D4603F071
:1002F000A9FB2946204601F0FFF903F0CDFB03F0EE
:10030000A1FB2046142101F0BFFA03F0C5FB03F066
:1003100099FB2046034901F0E3F803F0BDFB2046BA
:1003200038BD00BF9A99993D704700000000000059
:1003300010B52DED028B08EE101A044603F082FB77
:10034000F3EE097A38EE278ADFED0F7A88EE277A06
:1003500017EE100A0DF046FE09A3D3E900230DF0B5
:10036000E3FC0EF08BF90146204601F0B9F8BDEC34
:10037000028BBDE8104003F08FBB00BFAFF30080DD
:100380009A9999999999A93F00007A44704710B5B4
:10039000044601F0ADFB204610BD000038B5B0F9B1
:1003A0000030013304460D4604D13A22054906487F
:1003B00003F02EFB63680DB1E26801E022691B04C3
:1003C000136038BD64EA00089AEA0008704738B53F
:1003D0002DED028B08EE101AB5EEC08A0446F1EE40
:1003E00010FA00F1200004F1340504D50021FFF7D4
:1003F000D5FF012103E00121FFF7D0FF00212846AE
:10040000FFF7CCFF03F01EFB18EE101A04F10800F2
:1004100001F066F8BDEC028BBDE8384003F03CBB50
:10042000FFF7D5BF034610B553F8042B044602B9B5
:10043000036022689A4204D059220349034803F01A
:10044000E7FA206810BD00BFB2EA0008D4EA00084D
:1004500008B50248FFF7E6FF08BD00BF7C16002084
:1004600008B50248FFF7DEFF08BD00BF7C1600207C
:100470002DE9F84304460E4604F1080598469146D6
:10048000142703F0DFFA3146284604F1200601F074
:1004900033F903F001FB3A460021304604F07EFFB9
:1004A0004946304604F1340603F0CDF93A460021BE
:1004B000304604F073FF41463046104E03F0C3F956
:1004C0000F4BA3643046FFF7ADFFBDF9201004F1D8
:1004D0004C0000F071FD3046FFF7A4FF03F0B2FAC4
:1004E0002846C82101F070F803F0D6FA054B2360C6
:1004F000002363602046BDE8F88300BF7C1600201F
:1005000054EA00080AD7233C38B5134C2DED028B72
:1005100005462046FFF786FF05F14C0000F0B0FDD0
:1005200008EE100A2046FFF77DFFF1EE047A68EE30
:10053000277A17EE900A0DF055FD05A3D3E90023A5
:100540000DF0CEFE0EF09AF8BDEC028B38BD00BF68
:10055000EC51B81E85EBC13F7C160020027B22B116
:10056000036800220273DB6818477047F0B5002368
:1005700084681D4601269C420CD0426852F8232014
:10058000916857680131B942916024BF1673956034
:100590000133F0E7F0BD70477047C36A0133C362AF
:1005A0007047034610B103C983E8030070477047E2
:1005B0000368406818477047704770477047704736
:1005C0000149024802F0A0BF01F00008400C0020E1
:1005D00010B5044601F08CFA204610BD10B5044653
:1005E00001F086FA204610BD10B5044601F080FAED
:1005F000204610BD10B5044601F07AFA204610BD21
:1006000010B5044601F074FA204610BD10B504463A
:1006100001F06EFA204610BD38B5B0F91030013344
:10062000044604D148220C490C4803F0F1F9A369AF
:100630001D6863691D40B4F91030013304D13A22BA
:100640000549064803F0E4F963690DB9E26901E080
:10065000226A1B04136038BD64EA00089AEA0008A5
:10066000C36810B504460BB19B689847204610BD7F
:10067000C36810B504460BB19B689847204610BD6F
:1006800038B50546064B45F8183B044603F06CF8B0
:100690002846FFF7EDFF204603F09CF8204638BDC2
:1006A00038F5000838B50446054B44F80C3B0546C0
:1006B000204603F059F82046FFF7E2FF284638BDF0
:1006C00000EB000810B50446FFF7ECFF204601F0F0
:1006D0000FFA204610BD10B50446FFF7D1FF2046A3
:1006E00001F006FA204610BD38B5094B036090F8BA
:1006F00030300446051D2BB1002380F830302846E9
:1007000003F032F82846FFF7BBFF204638BD00BF94
:1007100020EB000810B50446FFF7E6FF204601F085
:10072000E7F9204610BD000070B506460B4B46F8B1
:10073000983B044646B100F1B805B54204D0103DDF
:100740002846FFF795FFF8E704F13800FFF788FF28
:1007500004F12800FFF784FF204670BD20F5000853
:1007600010B50446FFF7E0FF204601F0C1F920462E
:1007700010BD000010B5094B036003F120025C338B
:100780000446C0F8BC20C0F8C030BC3002F084FE83
:100790002046FFF7C9FF204610BD00BF00F4000847
:1007A000A0F1BC00E6E7A0F1C000E3E738B5CB68F4
:1007B00004460D460BB15B689847EB68E360204642
:1007C00038BD000030B52DED028B85B0054668467A
:1007D00008EE102AFFF7EAFFDFED0D7A05F11804A5
:1007E00028EE278A2046BCEEC88AFFF741FF1CB1DD
:1007F00069462046FFF7DAFF18EE101A284602F085
:100800009FFF6846FFF734FF05B0BDEC028B30BD9B
:1008100000247449C26830B5013205690723B2FB70
:10082000F3F4C4EBC404121BAA420DD0C268024404
:100830001171C2680132B2FBF3F3C3EBC303D31AE5
:10084000C36043690133436130BD026910B50132B1
:10085000C4680723B2FBF3F1C1EBC101521AA242F3
:100860000FD002690132B2FBF3F3C3EBC303D31A17
:100870000361036903441B794269013A42611846E6
:1008800010BD002010BDD0F80831D0F8042101338C
:10089000DBB2934210D0D0F808310133DBB2C0F89C
:1008A0000831D0F8083103441B79D0F80C21013A03
:1008B000C0F80C211846704700207047D0F804316A
:1008C000D0F808210133DBB293420ED0D0F80431C6
:1008D00003441971D0F804310133DBB2C0F804319C
:1008E000D0F80C310133C0F80C317047F0B52DED64
:1008F000028B04469FB02448FFF706FED4F8343339
:10090000D4EDCE7A04EB830292ED058A07EE100A4D
:1009100037EEC88AC82138EE078A013384EDCE8AC3
:100920005061B3FBF1F201FB1233C4F834331648C3
:10093000FFF7EAFDDFED157A88EE277A044605AD6C
:1009400017EE100A0DF04EFB0D23064603932046CA
:100950000A230F4602930DF045FB3246CDE9000114
:100960003B460B49284605F0FFF800240646A64200
:1009700005D0295D0748FFF7A1FF0134F7E71FB055
:10098000BDEC028BF0BD00BF280F002000004843E3
:100990008CEB0008FC0D00202DE9F04F2DED028BB3
:1009A0004FF4E13187B09E489E4FDFF89092DFF818
:1009B00090B202F0FFFD0A220D238DE80C009A4947
:1009C0009A4802F0A1FD012387F83030984B02933A
:1009D000984A994B059302A9381D0397FFF7F2FE39
:1009E00002A8FFF745FECA46D9F80831D9F8042114
:1009F0000133DBB293420BD0894802F000FE38B1DC
:100A00008E48FFF740FF0146884802F057FDEBE7AC
:100A1000DBF80831DBF8042189480133DBB293426B
:100A200007D0DAF80431DAF808210133DBB2934257
:100A30001BD1D0F80431D0F808210133DBB2934246
:100A400000F0CD80764802F0C9FD002800F0C78094
:100A5000734802F0C3FD0028C6D0744802F042FD7E
:100A6000C1B27748FFF72AFFF2E7FFF70CFF4128F2
:100A70008046744D02D0B8F1530F0CD100230622EA
:100A8000EB6041462A616F486B612B77FFF7C2FE2E
:100A900085F81C808BE041462846FFF7BBFE6B695A
:100AA000052B40F084802846FFF7CFFE2B7F834242
:100AB00040F082802A6907210132B2FBF1F3C3EBD7
:100AC000C303D21A2A441379302B0DD02B6901337A
:100AD000B3FBF1F2C2EBC2029B1A2B441B79312B00
:100AE0006AD1BFEE008A01E0B7EE008A554C20467D
:100AF000FFF7ABFE2B6907260133B3FBF6F2C2EB1F
:100B0000C2029B1A2B441B792F2B55D92369013321
:100B1000B3FBF6F2C2EBC2029B1A23441B79392BBA
:100B20004AD82046FFF791FE23690133B3FBF6F262
:100B3000C2EBC2029B1A3038234407EE900A1B799D
:100B4000F8EEE77A2F2BC4ED087A35D92369013303
:100B5000B3FBF6F6C6EBC6069B1B23441B79392B69
:100B60002AD8B2EE047A67EE877A2046C4ED087A76
:100B7000FFF76BFE303807EE900A94ED087AF8EE36
:100B8000E77A204677EE877A67EE887AC4ED087AAE
:100B9000FFF75BFE3B2815D000230622E3602261AD
:100BA000636100230622EB602B772A616B6141466B
:100BB0002248FFF783FE17E700230622EB602A6135
:100BC0006B61EEE7227F412A4FF0000302D1226AD7
:100BD000A262E2E7532A04BF226A6262DDE71A4D8D
:100BE0000024AB68A34207D96B6853F8240003685C
:100BF0009B6898470134F4E7F96A0A23B1FBF3F2E2
:100C000003FB1213002B7FF4EFAE0E4CA16AA06918
:100C1000FFF746FB616AA069FFF758FBE4E600BFF7
:100C2000840B0020AC0C002096EB0008400C002048
:100C30009B05000817B7D13880EB0008FC0D002099
:100C4000EC0C00205C0C0020C812002010B50446FB
:100C5000FFF790FD204600F04BFF204610BDA0F1AD
:100C6000BC00F3E7A0F1C000F0E70000F0B587B0EA
:100C70004FF4165300930322002302217848794D44
:100C800002F092FB784A7949754800F01BFF002476
:100C900015238DE8180013220A2327217448FFF733
:100CA000E1FA714A7349724800F00CFF724B7348C5
:100CB0002B60FFF7B7FB0421681800F07DF96F483F
:100CC000FFF7B0FB684A6E49284600F0FBFE6D4A0C
:100CD0006D4D1346214643F8045B02F5827203F81A
:100CE000011B93424FF000046648F8D1FF235E4A8F
:100CF0006649C0F80441C0F80831C0F80C4100F062
:100D0000E1FE634A134602F5827243F8045B03F87E
:100D1000014B93424FF000055D48F8D15D4C524ABB
:100D20005A49C0F80451FF23C0F80831C0F80C51EB
:100D300000F0C8FE2046584B40F8043B574E02F0E6
:100D400029FD6660A562E56284F830502046544C67
:100D5000454A544900F0B6FE41F2883320466360AC
:100D6000514B40F8103B14222946A560257304F02E
:100D700015FB052104F1100002F065FDB4F91030F7
:100D8000013304D13A224949494802F041FEE3695E
:100D900062691A604749344A414800F093FE464868
:100DA000464B43600024464B2F4A464984600473F7
:100DB000036000F087FE444B64225A60434A1A6085
:100DC000434A1A619C601C7303F11402002103F56D
:100DD0004D7342F8041B9A424FF000073A48F8D18D
:100DE00000243C4D204A3C49C0F83443C0F83873D5
:100DF00000F068FE394B2B60394B6B6005F10C003D
:100E00000323AB6002F0C6FC364B029302A9364BBB
:100E1000364AEE6005F10C002C6305930395FFF74D
:100E2000D1FC02A8FFF724FC0F4A3149284600F004
:100E300049FE3048304B0360062304710A4A44716E
:100E40002E498471C471047244728472C460036157
:100E5000074B44618361076200F034FE07B0F0BDC8
:100E6000840B0020E00C002098010020750700088A
:100E70000C0F00208D02000854EA00087C160020A8
:100E80008D030008EC0C002010EB0008BF050008E3
:100E9000FC0D0020AC0C002020EB000838F5000809
:100EA000880C0020E906000830EB000864EA00081E
:100EB0009AEA0008BB050008B8120020A0860100CD
:100EC00048EB0008B90500087C0F002070EB000813
:100ED00060EB0008C8120020B705000800EB00080E
:100EE0009C0100206D05000880EB000817B7D13881
:100EF000A50600085C0C0020F0EA0008BD0500080B
:100F00001FB5044610226846002104F047FA284B1A
:100F100022681A60A279012301930293122A43D80E
:100F2000DFE802F02C2B0A0C0E10121416181A1CF3
:100F30001E20222426282A0002231EE003231CE070
:100F400004231AE0052318E0062316E0072314E023
:100F5000082312E0092310E00A230EE00B230CE023
:100F60000C230AE00D2308E00E2306E00F2304E023
:100F7000102302E0112300E0122300930D4A0C48D5
:100F8000536823F440036946536001F019F9084897
:100F900001F062F806480A2101F0BEF820B90448C1
:100FA00001F00AF980B200E0002004B010BD00BFDB
:100FB000D41600200023014073B505460C460846B0
:100FC000264902F07FFC2860013004D124482549DD
:100FD000362202F01DFD2046204902F08FFC431C02
:100FE000064604D120481F493A2202F011FDC6F3FB
:100FF000C426EF2CAE7103DC2046184902F026FC13
:1010000029681A4BAC8099420FD11948036813BB69
:101010000193184B5A6C42F480725A645B6C03F46F
:1010200080730193019B0123036013480023012275
:101030000160436083600361836103624362C36252
:101040008362C360C2610363436100F05BFF10B160
:101050000A4802F03FFD02B070BD00BFA4ED0008D9
:1010600094EE0008ACEE000807EF000800200140F5
:10107000FC12002000380240D416002020EF0008A7
:1010800008B5FFF73DFF07EE900AB8EE677ADFED8F
:10109000037A67EE277A17EE900A08BD01088039B7
:1010A00010B50C4CA268A468B4F1006F13460CD1C3
:1010B000131F094A53F8044F42F8044F074CA24249
:1010C000F8D1044A4FF000539360103043F82010D9
:1010D00010BD00BF00ED00E0FCFFFF1F90010020ED
:1010E000431C10B5044604D106480749262202F0E5
:1010F0008FFC2046002100F0A1F904F00F0401202C
:10110000A04010BD9FEA000837EF000870B5044604
:101110004B1C0E4621800ED0C1F3031000F01EF9C7
:1011200005463046FFF7DCFF05F110031835606017
:10113000A360E560256170BDB0F9000000F0ACB9B6
:1011400038B5B0F90030013305460C4604D10748E4
:101150000749492202F05CFC012CB5F900000CBFE4
:1011600021460021BDE8384000F068B99AEA00083D
:1011700037EF000838B5144B1A68116911F0020FE7
:101180001C4607D0D368980704D56FF0020313619B
:1011900002F0C8FB23681A69510714D5DA685207B0
:1011A00011D56FF00402094D1A615C6A2B68E31ACD
:1011B000B3F57A7F07D300F095FE034B1B6804F567
:1011C0007A729A632C6038BD6C17002000130020DF
:1011D00030B589B003A801A901F0E6FB01F0B4FB2A
:1011E00000230293234B01901A6C234C42F0080217
:1011F0001A641A6C02F008020292029A1A6A42F009
:1012000008021A621A6A22F008021A62069AA3F504
:101210000B3323604FF0FF33E360184B02B1400003
:10122000B0FBF3F001380025606013482561A5602C
:10123000656101F09BFC32201149FFF731FF114B32
:101240000D484FF480225A60294601F05FFD0421C9
:10125000094801F05BFD23680B4A596A1160126866
:1012600002F57A729A63DA68284642F00402DA607C
:1012700009B030BD003802406C17002040420F001A
:101280007511000800E100E0001300207FB502F0B6
:10129000D9FB01A8052102F0D6FABDF904300133CB
:1012A00004D10E480E493A2202F0B2FB049B029A86
:1012B0001A60962002F024FCBDF90430013304D1F9
:1012C000064807493A2202F0A3FB029B059A1B0439
:1012D0001360962002F014FCDFE700BF9AEA0008D2
:1012E0007FEF000830B50546A1B00C4602F0AAFB1E
:1012F00029466846224608F0B7FD051E03DC02F0C9
:10130000CBFB21B030BD094B1B6823B90848022133
:10131000032200F0C1FC00241DF80410044801342D
:1013200000F09AFDAC42F7D1E9E700BF501600206B
:101330001C1700200FB407B504A951F8040B019144
:10134000FFF7D0FF03B05DF804EB04B0704708B5B9
:1013500001F072FEBDE8084000F0ACBD7FB500238F
:10136000072853D8DFE800F004111E2B38525245ED
:1013700000932A4B2A481A6B42F001021A631B6B36
:1013800003F001030093009B44E00193234B2548A5
:101390001A6B42F002021A631B6B03F00203019303
:1013A000019B37E002931D4B1F481A6B42F0040269
:1013B0001A631B6B03F004030293029B2AE003935E
:1013C000164B1A481A6B42F008021A631B6B03F0A3
:1013D00008030393039B1DE00493104B14481A6BFE
:1013E00042F010021A631B6B03F010030493049B7A
:1013F00010E00593094B0F481A6B42F080021A6304
:101400001B6B03F080030593059B03E00A4802F081
:1014100061FB002007B05DF804FB00BF003802400C
:10142000000002400004024000080240000C02409C
:1014300000100240001C0240E2EF000830B5431CDF
:1014400087B005460C4604D110481149812202F0AC
:10145000DFFAC5F30310FFF781FF05F00F05012345
:10146000AB4004F00F0201930A4B53F82230029371
:10147000C4F302130393C4F3C314032301A9049315
:10148000059400F02FFF07B030BD00BF9FEA0008B1
:1014900003F0000858F00008431C70B506460C46DF
:1014A00004D10D480D49A62202F0B2FAC6F303108A
:1014B000FFF754FF06F00F05C1686B0003229A4046
:1014C00021EA0202032CC260C26828BF00249C40AB
:1014D0001443C46070BD00BF9FEA000803F0000819
:1014E00030B507EE101A284B02681A60B5EEC07AC4
:1014F000F1EE10FA89B0054609D4F7EE007AB4EEA1
:10150000677AF1EE10FAC8BFB0EE677A01E09FED9E
:101510001F7AD5ED037AF8EE677A602267EE877A54
:101520000192FCEEE77AAA68C5ED047A17EE903ACC
:10153000B3FBF2F302930023039304930593069302
:1015400007932B7D013B032B1CD8DFE803F0080237
:101550000406042404E0082402E00C2400E0002433
:10156000094801A9224601F061FB10B1084802F0C8
:10157000B1FA6B7D0448214613B101F0FFFB01E095
:1015800001F0DAFB09B030BD0413002000000000B8
:101590008CF00008C368ABB190ED047A07EE903A86
:1015A000B8EE477AF8EE677AC7EE277AB7EE007A98
:1015B000F4EEC77AF1EE10FAD4BF17EE900A17EEE8
:1015C000100A7047002070472DE9F041D0F80080E4
:1015D000414C86B005460E46C4F80080FFF7DAFF9E
:1015E000D8F8202041F21113134007465BB9D8F810
:1015F000202040F2444313402BB9D8F8003023F0A8
:101600000103C8F8003001A8694601F0CDF92B6844
:10161000324A93421BD00BD8A2F50062934216D0F7
:1016200002F58062934212D0B3F1804F51D10EE0A7
:101630002B4A934210D002D8A2F5804204E0294AF6
:10164000934209D002F58062934205D041E001F057
:101650007BF90090049803E001F08EF90090059862
:10166000009A2149B6F5803FACBF4FF4FA730123CD
:10167000AB60AB6800B15200B2FBF1F212FB03F3B6
:101680009BB2013B63606368B3F5803F02D31748A8
:1016900002F020FAAA68731EB3FBF2F3B3F5803FA1
:1016A000E36002D3124802F015FA00230A482361CE
:1016B000A36001F075FA10B10E4802F00BFAEE606B
:1016C00028463946FFF70CFF2268136843F00103F0
:1016D000136006B0BDE8F08104130020000C004048
:1016E000004001400044014040420F00A3F00008C8
:1016F000BFF000088CF0000870B5044688B00846BA
:101700000E46554902F0DEF82060013004D15348FE
:1017100053492D2202F07CF930464F4902F0EEF891
:10172000431C054604D14F484D49312202F070F95F
:10173000C5F3C4234C4A23752368C5F3004593427F
:1017400065754FF000020BD10092484A516C41F090
:1017500001015164526C02F001020092009A3BE0D8
:10176000B3F1804F0BD10192404A116C41F001015D
:101770001164126C02F001020192019A2CE03C49C2
:101780008B420BD10292394A116C41F00201116473
:10179000126C02F002020292029A2DE035498B424D
:1017A0000BD10392314A116C41F004011164126CA7
:1017B00002F004020392039A2EE02F498B420BD1D0
:1017C0002A4B04921A6C42F008021A641B6C03F054
:1017D00008030493049B2EE0284A93420CD1002373
:1017E0000593224B5A6C42F480325A645B6C03F4CA
:1017F00080330593059B1EE0214A93420CD10023C0
:1018000006931A4B5A6C42F400325A645B6C03F430
:1018100000330693069B0EE01A4A93420BD1002335
:101820000793124B5A6C42F480225A645B6C03F4A7
:1018300080230793079B0849304602F007F80023EE
:10184000E36023610123A680A360204644F6206163
:10185000FFF7BAFE08B070BDF4EB0008D8F000083E
:10186000F0F0000807EF00080000014000380240D7
:101870000004004000080040000C0040004001400F
:1018800000440140004801404FF47A735943FFF788
:101890009BBE70477047036870B504465B6A984703
:1018A000236820461B69002101229847431C0646F5
:1018B000236804D120469B6A9847304670BD1B6957
:1018C000204600210222984723680546314600221F
:1018D0001B6920469847236820469B6A98472846FC
:1018E00070BD000008B5084B1B685BB907480221B2
:1018F000032200F0D1F905484FF41651BDE8084025
:1019000000F074BA08BD00BF501600201C1700205C
:1019100002284FF0000309DDC21E074951F82200DA
:1019200041F8223020B103685B68184718467047B9
:101930004FF0FF30704700BF4C130020022870B5F5
:101940000C4615460FDC0E4B1B680BB9FFF7CAFFA0
:101950006619B44205D00B4814F8011B00F07CFA5C
:10196000F7E7284670BD0338074B53F8200020B135
:101970000368BDE870401B6818474FF0FF3070BD2A
:10198000501600201C1700204C130020022810B510
:101990000C460ADC0B4B1B680BB9FFF7A3FF0A4888
:1019A00000F03EFA2070012010BD0338074B53F8B9
:1019B000200020B10368BDE810409B6818474FF035
:1019C000FF3010BD501600201C1700204C130020C3
:1019D000022807DD0338064B53F8200020B10368C6
:1019E000DB681847012070474FF0FF30704700BF99
:1019F0004C130020022807DD0338064B53F8200063
:101A000020B103681B691847002070474FF0FF3072
:101A1000704700BF4C130020022808B504D84FF4CB
:101A200000534B60002008BD02F002F90923036057
:101A30004FF0FF3008BD08B5012000F045F87047B1
:101A400008B5FFF784FCFFF7FAFF08BD704708B53B
:101A5000FFF7FCFFBDE80840FEF79EBF0C4A136885
:101A600010B51844EFF30881884205D3094B0C22C6
:101A70001A604FF0FF3010BD0749096821B1074CCB
:101A8000246821448842F1D21060184610BD00BF7E
:101A9000A8010020A8170020481300204C140020A3
:101AA000074C08B523680546986802F0CBF923680F
:101AB000D86802F0C7F90DB1FFF7E8FBFEE700BFF9
:101AC000D80500200120704708B5FFF7E9FF012085
:101AD0007047002103F098BF02F0C6B97047704705
:101AE00008B5FFF7FBFF08BD08B5FFF7F8FF08BD15
:101AF00008B103F03FB870470B4B10B503600446C4
:101B00000A48FEF78FFC0023094A52F82310A1422D
:101B100004BF002142F823100133402BF4D10348C5
:101B2000FEF780FC204610BDA8F2000840130020FC
:101B30004C1300202DE9F34188463649054604F050
:101B4000B3F8044610B9FFF7CDFE5EE028463249EF
:101B500004F0AAF818B9FFF7C5FE012455E028469D
:101B60002E4904F0A1F818B9FFF7BCFE02244CE09E
:101B70002B48FEF757FC00242A4E56F824303746EF
:101B800033B10134402CF7D12548FEF74BFC3AE045
:101B90004FF0FF33224846F82430FEF743FC2B7801
:101BA0003A2B06D1284620496A4604F003F80098EB
:101BB00024E06846294601F099FB684601F0D8FB0D
:101BC00010B946F824001EE0684601F0BFFB18B1CA
:101BD000684601F0C4FB11E0684601F0B0FB054621
:101BE00010B946F824000EE0036868469E6801F0CC
:101BF0009BFB28F4803201462846B04747F8240072
:101C000008B1033401E04FF0FF34204602B0BDE8D4
:101C1000F08100BF49F1000894F2000850F100087B
:101C2000401300204C13002090F20008426818492D
:101C30000346920110B588181C688C509A6842605F
:101C40000246D96842F8081F1969516059699160C4
:101C500000F110011A6A8A600022C261C284828483
:101C6000C2858285B3F91A20013201D1082305E02B
:101C7000B3F9183001330CBF04230C234B6001F07F
:101C8000ACF920B10348BDE8104001F023BF10BDFE
:101C900050140020D4F20008F0B5044685B0084680
:101CA0000E464949154601F00DFE484907462846AB
:101CB00001F008FE0146384601F0E6FD20600130E3
:101CC00004D143484349662201F0A2FE2368424AF8
:101CD00093421DD002F5806293422FD0A2F550426C
:101CE000934241D13D4B1A6A42F400321A621A6A99
:101CF00022F400321A62002202921A6C42F400327C
:101D00001A641B6C03F400330293029B01232AE044
:101D1000324B5A6A42F010025A625A6A002122F08B
:101D200010025A6201915A6C42F010025A645B6CC4
:101D3000616003F010030193019B15E0274B5A6A81
:101D400042F020025A625A6A22F020025A620022AD
:101D500003925A6C42F020025A645B6C03F0200339
:101D60000393039B052363603046174901F06EFD22
:101D70002846164901F06AFD721C03D03046012145
:101D8000FFF78AFB6B1C03D028460121FFF784FB79
:101D90004FF41653A3600023E36023616361236261
:101DA000268365832046FFF741FF22680C4B9A4249
:101DB00007D10C4B0C4801221A6021464C2203F03B
:101DC000EFF905B0F0BD00BF5CED0008ACEB00081A
:101DD000ECF2000808F3000800100140003802404F
:101DE00000440040501600201C1700208160FFF7BF
:101DF0001DBF0000034B19604168034B43F82120CD
:101E0000704700BF74160020541600204368034A30
:101E10009B01D3581868C0F340107047501400203D
:101E200038B5446805462846FFF7F0FF0028FAD089
:101E3000A401034B1B595868C0F3080038BD00BF0C
:101E4000501400204368034A9B01D3581868C0F31C
:101E5000C01070475014002070B5456806460C4607
:101E60003046FFF7EFFF0028FAD0AD01024B5B5977
:101E7000C4F308045C6070BD50140020DFF820D06B
:101E8000002103E0074B5B58435004310648074BE1
:101E900042189A42F6D301F0A9F9FEF7A9F9704762
:101EA0000080012020FB000898010020680B002022
:101EB000FEE7000008B50A4B1A6842F400721A6087
:101EC0001A6842F480621A601A6842F480721A60DA
:101ED0000F20FFF77DF900F003FA002008BD00BFD6
:101EE000003C0240024A136801331360704700BF90
:101EF00068170020014B1868704700BF6817002062
:101F00007047000010B50446002800F09E80036C66
:101F100023B9436480F83C30FFF7F2FF236CDB0603
:101F200000F18E80236C23F4885323F0020343F0E6
:101F300002032364464B5A6822F440325A605968BF
:101F400062680A435A60236821695A6822F48072E1
:101F50005A605A6842EA01225A605A6822F0407276
:101F60005A605968A2680A435A609A6822F400626B
:101F70009A609968E2680A439A603649A26A8A427E
:101F80000ED0996821F07061996099680A439A604F
:101F90009A6822F040529A609968E26A0A4306E021
:101FA0009A6822F070629A609A6822F040529A60B1
:101FB0009A68A16922F002029A609A6842EA410294
:101FC0009A60226A9AB15A6842F400625A605A686A
:101FD00022F460425A604FF4604191FAA1F1626AC2
:101FE0005868B1FA81F1013A8A40024302E05A6826
:101FF00022F400625A60DA6A22F47002DA62E2695C
:10200000D96A013A41EA0252DA629A68216B22F4F3
:1020100000729A609A6842EA41229A609A686169FD
:1020200022F480629A609A68002042EA81229A60D3
:102030006064236C23F0030343F00103236400E096
:102040000120002384F83C3010BD012010BD00BFEA
:10205000002301400100000F82B00023019390F89B
:102060003C30012B4DD0012380F83C3003689A6846
:10207000D10703D59A68D20712D437E09A6822496B
:1020800042F001029A60214A1268B2FBF1F202EBBF
:1020900042020192019A002AECD0019A013AF8E733
:1020A000026C22F4E06222F0010242F480720264C7
:1020B0005A68510541BF026C22F4405242F48052EA
:1020C0000264026C12F480521CBF426C22F00602C1
:1020D0004264002280F83C206FF022021A600C4A11
:1020E0005268D20604D00B4A934201D0002009E086
:1020F000986810F04050F9D19A6842F080429A6096
:1021000000E0022002B0704740420F00AC01002006
:10211000002301400020014003689A6870B556050D
:1021200004460D460BD59B68D80508D5236C43F0B3
:1021300020032364002384F83C30012070BDFFF7A6
:10214000D9FE064623681A68920711D4691CFAD092
:1021500045B9236C43F004032364002384F83C3026
:10216000032070BDFFF7C6FE801BA842EAD9F0E746
:102170006FF012021A60226C42F4007222649A68B4
:1021800012F0405F01D0002070BDA269002AFAD190
:10219000DA6A12F4700F02D09B685B05F3D4236CEB
:1021A00023F480732364206C10F48050EBD1236CF3
:1021B00043F00103236470BD0368D86C70470000CE
:1021C000F7B50023019390F83C30012B63D00D68E4
:1021D0008A680123092D80F83C30ACB203680FD91E
:1021E00004EB4406DF681E3E4FF0070E0EFA06FEB3
:1021F00027EA0E07DF60DF68B2403A43DA600DE09D
:102200001F6905EB450E072606FA0EF627EA0606B5
:102210001E611E6902FA0EF232431A614A68062AEA
:102220004FEA82010CD80A445E6B053A1F219140A7
:1022300026EA01015963596B94400C435C631AE030
:102240000C2A0CD80A441E6B233A1F21914026EA1F
:1022500001011963196B94400C431C630BE00A44A1
:10226000DE6A413A1F21914026EA0101D962D96A0A
:1022700094400C43DC62164A934204D0002380F859
:102280003C30184622E0122D07D1124A536843F41D
:102290008003536001E0022018E0A5F11003012B38
:1022A000ECD80C4A5368102D43F400035360E5D179
:1022B000094B0A4A1B68B3FBF2F20A23534301930A
:1022C000019B002BDAD0019B013BF8E703B0F0BD86
:1022D0000020014000230140AC01002040420F00DB
:1022E000704700002DE9F3410F680022012393405D
:1022F00003EA07059D4240F0B9804C6824F0100CB9
:10230000BCF1020F14D14FEAD20E00EB8E0E02F098
:102310000706DEF82030B6004FF00F0808FA06F87E
:1023200023EA08080B69B34048EA0303CEF82030DB
:102330004FEA420E0323066803FA0EF3DB4303EA77
:10234000060804F0030606FA0EF60CF1FF3C48EA14
:102350000606BCF1010F066011D8866803EA060C78
:10236000CE6806FA0EF64CEA06068660466826EA4D
:10237000050CC4F3001696404CEA06064660C66893
:1023800003EA060C8B6803FA0EF64CEA0603C360F8
:10239000E3006BD5394E00230193D6F844E04EF4A8
:1023A000804EC6F844E0766C06F480460196019EA5
:1023B00022F0030606F1804606F59C3602F0030C77
:1023C000D6F808804FEA8C0C4FF00F0E0EFA0CFE78
:1023D00028EA0E0EDFF8AC80404519D003F18043A7
:1023E00003F5013398420ED003F5806398420CD078
:1023F00003F5806398420AD003F5806398420CBFCE
:102400000423052304E0012302E0022300E0032368
:1024100003FA0CF343EA0E03DFF864E0B360DEF87E
:102420000030EE4314F4803F14BF2B433340CEF80A
:102430000030DEF80430DFF848E014F4003F14BF49
:102440002B433340CEF80430DEF8083014F4801FFC
:1024500014BF2B433340CEF80830DEF80C30A40212
:1024600054BF06EA03051D43054BDD600132102A07
:102470007FF43CAF02B0BDE8F08100BF00380240FD
:10248000003C0140000002400368F7B5D90704464C
:1024900003D423689A073BD488E0A74B9A6802F0DC
:1024A0000C02042A07D09A6802F00C02082A0BD109
:1024B0005B685B0208D5A04B1B689F03E9D5636886
:1024C000002BE6D1012034E19C4B22791A7063681D
:1024D0007BB1FFF70FFD0546974B1B689E03D8D4D1
:1024E000FFF708FD41F28833401B9842F4D90320DE
:1024F0001FE1FFF7FFFC05468F4B1B689803C8D50B
:10250000FFF7F8FC41F28833401B9842F4D9EEE71C
:10251000894B9A6812F00C0F07D09A6802F00C02EF
:10252000082A16D15B68590213D4834B1A689207A4
:1025300002D5E268012AC5D11968F82090FAA0F006
:102540002269B0FA80F021F0F80182400A431A6053
:102550002CE0E2687A4BDAB101221A60FFF7CAFC7C
:102560000546754803689F0705D4FFF7C3FC401B69
:102570000228F6D9BBE70268F82191FAA1F1236994
:10258000B1FA81F122F0F8028B40134303600DE0B1
:102590001A60FFF7AFFC0546674B1B689E0705D521
:1025A000FFF7A8FC401B0228F6D9A0E7236818070C
:1025B00003D42368590744D51FE06269614B72B1A7
:1025C00001221A60FFF796FC05465B4B5B6F9A078A
:1025D000EFD4FFF78FFC401B0228F6D987E71A607B
:1025E000FFF788FC0546544B5B6F9B07E1D5FFF76F
:1025F00081FC401B0228F6D979E7002301934E4B5A
:102600001A6C42F080521A641B6C4F4A03F08053DC
:102610000193019B136843F480731360FFF76AFC16
:102620000546494B1B68DF050ED5484B227A1A70C8
:10263000A368BBB1FFF75EFC05463F4B1B6F9E07CF
:1026400008D5A269EAB959E0FFF754FC401B0228FB
:10265000E7D94CE7FFF74EFC41F28833401B984224
:10266000EBD944E7FFF746FC0546334B1B6F980751
:10267000E7D5FFF73FFC41F28833401B9842F4D97D
:1026800035E72D4B9B6803F00C03082B3FF41AAF82
:102690002F4D0023022A2B603ED1FFF72BFC06466C
:1026A0002548036899012BD447F6C07797FAA7F716
:1026B0004FF44036B7FA87F796FAA6F64FF07061F6
:1026C000B6FA86F691FAA1F1E369226AB1FA81F1CC
:1026D0001A43636ABB401A43A36A5B08013BB340D9
:1026E0001343E26A8A401343436001232B60FFF7E0
:1026F00001FC0446104B1B689A0107D5002018E026
:10270000FFF7F8FB801B0228CAD9F0E6FFF7F2FBBF
:10271000001B0228EED9EAE6FFF7ECFB0446064B65
:102720001B689B01EAD5FFF7E5FB001B0228F6D9E1
:10273000DDE603B0F0BD00BF0038024002380240C1
:1027400000004742800E474200700040703802404F
:102750006000474210B51C4CA36803F00C03042B27
:102760002ED0082B2ED1626802F03F03626847F634
:10277000C07112F4800F626891FAA1F147F6C0703F
:1027800000EA020008BF114AB1FA81F120FA01F013
:102790000EBFB2FBF3F20E49B1FBF3F202FB00F302
:1027A000094A50684FF4403292FAA2F200F44030E5
:1027B000B2FA82F2D04001304000B3FBF0F010BD1D
:1027C000034810BD014810BD003802400024F40049
:1027D00000127A00584B1A6802F00F02914270B54D
:1027E00004460D460AD82168880710D553488368E7
:1027F00023F0F002A3681343836008E0CAB21A70A2
:102800001B6803F00F038B42EDD0012070BDC90798
:1028100006D4494B1A6802F00F0295425AD360E081
:102820006368464A012B03D1126812F4003F08E0A6
:10283000991E0129126802D812F0007F01E012F0FF
:10284000020FE2D03D498A6822F0030213438B60F5
:10285000FFF750FB6368012B06460ED1374B9B6890
:1028600003F00C03042BD4D0FFF744FB41F2883370
:10287000801B9842F2D9032070BD022B0DD12F4B43
:102880009B6803F00C03082BC3D0FFF733FB41F226
:102890008833801B9842F2D9EDE7032B14D1274BE4
:1028A0009B6803F00C030C2BB3D0FFF723FB41F222
:1028B0008833801B9842F2D9DDE7FFF71BFB41F21A
:1028C0008833801B9842D6D81C4B9B6813F00C0FA2
:1028D000F3D19EE7EAB21A701B6803F00F03AB4214
:1028E00093D121684A0706D51448836823F4E0523F
:1028F000E368134383600B0741BF104A2169936863
:1029000023F4604344BF43EAC1039360FFF722FF0F
:102910000A4BF0229B6892FAA2F203F0F003B2FA9B
:1029200082F2D340064AD35CD840064B18600F2091
:10293000FEF74EFC002070BD003C02400038024013
:10294000D1F30008AC010020084B4FF4E0529B6823
:1029500092FAA2F203F4E053B2FA82F2D340044AAC
:10296000D35C044A1068D840704700BF003802406A
:10297000D1F30008AC010020084B4FF460429B6883
:1029800092FAA2F203F46043B2FA82F2D340044A0C
:10299000D35C044A1068D840704700BF003802403A
:1029A000D1F30008AC0100200F2303600B4B9A68A1
:1029B00002F0030242609A6802F0F00282609A68B4
:1029C00002F4E052C2609B6803F46043DB080361D9
:1029D000034B1B6803F00F030B6070470038024085
:1029E000003C0240036A23F001030362036A426869
:1029F00070B584690D6824F07304254323F0020444
:102A00008B6823430A4CA0420BD1CC688E6923F01B
:102A1000080323434C6922F44072344323F0040337
:102A2000224342604A6885614263036270BD00BF11
:102A300000000140036A23F480730362036A426862
:102A400030B5C4690D6824F073042C438D6823F4F9
:102A5000007343EA05230C4DA8420ED1CD6823F440
:102A6000006343EA05234D6922F4405242EA05120D
:102A70008D6923F4806342EA051242604A68C461AA
:102A8000C263036230BD00BF00000140036A23F44B
:102A900080530362036A30B54468C2690D6822F44A
:102AA000E64242EA05228D6823F4005343EA0533E7
:102AB000064DA84202BF4D6924F4804444EA8514BF
:102AC0004460C2614A680264036230BD0000014094
:102AD00070477047224A036890420ED0B0F1804F91
:102AE0000BD0A2F57C42904207D002F58062904262
:102AF00003D002F58062904214D14A6823F070033B
:102B00001343174A904225D0B0F1804F22D0154A86
:102B100090421FD002F5806290421BD002F5806285
:102B2000904217D0104A904214D002F58062904231
:102B300010D002F5806290420CD003608B68C362B3
:102B40000B688362064B984204BF0B690363012341
:102B500043617047CA6823F440731343EDE700BF35
:102B600000000140000400400040014010B5044650
:102B7000A0B190F8393003F0FF021BB980F838207B
:102B8000FFF7A6FF022384F839302068211DFFF7E4
:102B9000A1FF012384F83930002010BD012010BDB1
:102BA00010B50446A0B190F8393003F0FF021BB90C
:102BB00080F83820FFF78DFF022384F83930206831
:102BC000211DFFF787FF012384F83930002010BD55
:102BD000012010BD036A23F010030362036A4268F8
:102BE00030B584690D6824F4E64444EA05248D6810
:102BF00023F0200343EA05130B4DA8420ED1CD6804
:102C000023F0800343EA05134D6922F4406242EA4F
:102C100085028D6923F0400342EA850242604A68DA
:102C200084618263036230BD0000014038B590F8D2
:102C30003830012B04460D464FF0020058D00123D6
:102C400084F8383084F839000C2A4BD8DFE802F0D9
:102C5000074A4A4A174A4A4A294A4A4A39002068D2
:102C6000FFF7C0FE23689A6942F008029A619A69E8
:102C700022F004029A6199692A690A430FE02068E8
:102C8000FFF7A8FF236829699A6942F400629A61F4
:102C90009A6922F480629A619A6942EA01229A61F1
:102CA00020E02068FFF7C6FE2368DA6942F00802D8
:102CB000DA61DA6922F00402DA61D9692A690A4321
:102CC0000FE02068FFF7E2FE23682969DA6942F421
:102CD0000062DA61DA6922F48062DA61DA6942EA72
:102CE0000122DA610123002084F8393084F83800A9
:102CF00038BD10B50123046A8B4024EA0303036244
:102D0000036A8A401343036210BD000010B50446F5
:102D100001220068FFF7EDFF2368064A934202BFD5
:102D20005A6C42F400425A641A6842F001021A6076
:102D3000002010BD0000014010B5044601220068CB
:102D4000FFF7D7FF2368064A934202BF5A6C42F44A
:102D500000425A641A6842F001021A60002010BD55
:102D60000000014010B50423046A8B4024EA0303E9
:102D70000362036A8A401343036210BD10B5044620
:102D800004220068FFF7EEFF23685A6C42F4004209
:102D90005A641A6842F001021A60002010BD000057
:102DA0002DE9F04706683369044623F44052C368AE
:102DB0002169C0691343A2683361F36811436269F2
:102DC00023F416430A43024323F00C031343F36036
:102DD000736923F44072A369B0F5004F43EA02031C
:102DE00073617B4B7CD19E4203D003F580639E428E
:102DF00031D1FFF7C1FD636819254FEA43086843E5
:102E0000B0FBF8F8FFF7B8FD676868437F00B0FBD8
:102E1000F7F7FFF7B1FD63684FF064095B006843A3
:102E2000B0FBF3F0B0FBF9F009FB1077FFF7A4FD5E
:102E3000B8FBF9F86268FF003237B7FBF9F707F023
:102E4000F807684352004FEA08187F00B0FBF2FA17
:102E5000FFF792FD30E0FFF777FD636819254FEA31
:102E600043086843B0FBF8F8FFF76EFD67686843F6
:102E70007F00B0FBF7F7FFF767FD63684FF0640969
:102E80005B006843B0FBF3F0B0FBF9F009FB10778F
:102E9000FFF75AFDB8FBF9F8FF0062683237B7FB5D
:102EA000F9F707F0F807684352004FEA08187F0067
:102EB000B0FBF2FAFFF748FD454360684000B5FB00
:102EC000F0F0B0FBF9F009FB10A2D2003232B2FBF5
:102ED000F9F303F0070343441F44B760BDE8F087EC
:102EE0009E4202D03B4B9E422ED1FFF745FD6768C4
:102EF00019256843BF00B0FBF7F7FFF73DFD636896
:102F000068439B00B0FBF3F8FFF736FD63684FF0B2
:102F1000640968439B00B0FBF3F0B0FBF9F009FBD8
:102F200010831B013233B3FBF9F303F0F008FFF712
:102F300023FDB7FBF9F76268684392003F01B0FBDD
:102F4000F2FAFFF719FD2DE0FFF7FEFC676819257F
:102F50006843BF00B0FBF7F7FFF7F6FC6368684310
:102F60009B00B0FBF3F8FFF7EFFC63684FF06409D8
:102F70009B006843B0FBF3F0B0FBF9F009FB108352
:102F80001B013233B3FBF9F303F0F008FFF7DCFC6D
:102F9000B7FBF9F76268684392003F01B0FBF2FAB1
:102FA000FFF7D2FC454360688000B5FBF0F0B0FB52
:102FB000F9F009FB10A212013232B2FBF9F202F071
:102FC0000F0208EB02033B44B360BDE8F08700BF8B
:102FD0000010014000140140704710B5044640B392
:102FE00090F8393003F0FF021BB980F83820FFF762
:102FF000F3FF2268242384F83930D36823F4005384
:10300000D3602046FFF7CCFE23681A6922F4904271
:103010001A615A6922F02A025A61DA6842F40052AF
:10302000DA6000202023E06384F8393084F83A30F5
:1030300010BD012010BD0000174A1849936803F025
:103040000C03042B03D0082B03D0154B18E0154BB1
:1030500016E05068536810F4800F03F03F03506887
:1030600014BF104A0E4AB2FBF3F30B4A5268C2F384
:103070000142C0F38810013243435200B3FBF2F324
:103080000B60054B084A9B68C3F30313D25C0B68C3
:10309000D3400B60704700BF00380240AC010020F5
:1030A0000024F40000127A00E1F3000810B594B097
:1030B000214B002101911A6C42F080521A641B6C62
:1030C0001E4A03F080530193019B0291136823F47D
:1030D000404343F400431360136803F440430293F6
:1030E000029B0123089300B1052309934FF4800349
:1030F0000F93082310934FF4A87311930423022411
:10310000129308A807230E941393FFF7BDF978B91B
:103110000F23039305904FF480530790214603A893
:1031200004940693FFF756FBB0FA80F0400900E0E4
:10313000002014B010BD00BF0038024000700040F5
:1031400030B595B00024204B01941A6C42F08052A7
:103150001A641B6C1D4A03F080530193019B029477
:10316000136823F4404343F4004313601368099445
:1031700003F440430293029B0F940323089301231B
:103180000B9310230C9310934FF4A8731193042303
:103190000225129308A807230E951393FFF774F9DD
:1031A00078B90F23039305904FF480530790294675
:1031B00003A804950693FFF70DFBB0FA80F04009D1
:1031C00000E0204615B030BD0038024000700040DD
:1031D00008B50120FFF76AFF30B9FFF767FF18B99C
:1031E000FFF7AEFF00B9FEE708BD0000174AD2F8AE
:1031F000883010B543F47003154CC2F8883023684A
:10320000002143F001032360A160236823F084734D
:1032100023F4803323600F4B6360236823F48023FF
:1032200023604FF00063E16093600B4B0B4A1A6020
:10323000FEF740FEFFF7CCFF236A43F0080323624A
:10324000236A23F00803236210BD00BF00ED00E0F5
:103250000038024010300024AC0100200024F400AB
:10326000054B186830B901221A60044B044A1A60F1
:10327000FDF7AEBF704700BF781600206C17002026
:10328000000C004008B5044B1B680BB9FFF7E8FFC2
:10329000024B586A08BD00BF78160020000C0040A1
:1032A000044B054A13605863DA6842F00202DA60A0
:1032B000704700BF000C00406C170020034B044A0D
:1032C0001360DA6822F00202DA607047000C0040F6
:1032D0006C170020034A044B13606FF002021A615E
:1032E000704700BF6C170020000C004010B5002391
:1032F000036043600A782F2A044613D14A788AB1C2
:10330000481C2060194623681A782F2A02D10133FD
:10331000236004E01AB1013301312360F3E700F0C8
:1033200041FC6060204610BD00687047406808B5E9
:1033300020B100F0EAFB431E5842584108BD10B5C9
:103340000446FFF7F3FF00B1606810BD406808B5A0
:1033500020B100F0DAFBB0FA80F0400908BD10B5EA
:103360000446FFF7F3FF10B1606800B1043810BDE8
:103370004068003018BF012070477047A0F1BC00C2
:10338000FFF7FBBF7047A0F1BC00FFF7FBBF00F0E9
:1033900047B9A0F1BC00FFF7FABF00F044B9A0F1B3
:1033A000BC00FFF7FABF000038B504461D46049B79
:1033B00000F040F904F1BC00294600F04BF8064B40
:1033C00003F10802226003F128026433C4F8BC2030
:1033D000C4F8C030204638BDF8F30008002070471C
:1033E000F8B503685B6A0E4604468F189847354661
:1033F000BD4208D0236815F8011BDB6A20469847B8
:103400000130F5D12F46236820469B6A9847B81BA8
:10341000F8BDF8B503685B6A0E4604468F189847F6
:103420003546BD4208D0236820461B6B9847431C95
:1034300002D005F8010BF4E7236820469B6A984701
:10344000A81BF8BD0020704700207047002070477F
:10345000002070471FB5044600F0C4FB0B4B0C491D
:1034600003F108024433636000236361226001A812
:10347000224602F079FB074901A800F03DFE606199
:10348000FEF727FB204604B010BD00BF68F400081B
:1034900090F20008B4F4000810B5074B03F10802DD
:1034A0004433044602604360406900F009FC204652
:1034B00000F0ACFB204610BD68F4000838B5036886
:1034C00004465B6A0D469847606900F0BBFC616981
:1034D000284600F019FE236805469B6A2046984757
:1034E000284638BD38B5036804465B6A984760696A
:1034F00000F0A8FC6069FEF7EFFA236805469B6AB6
:1035000020469847284638BD0EB477B5036807AD06
:10351000044655F8046B5B6A98476069019500F0B2
:1035200091FC3146019A606906F042FC2368054629
:103530009B6A20469847284603B0BDE8704003B018
:10354000704770477047704710B580B11468536872
:103550000CB9DA070BD513F0010F4FEA63031CBF58
:10356000C258145918442346BDE81040184710BDEE
:103570000368184708B10B68036070477047000084
:1035800070B50901441801F19805D4F8A430054438
:103590002BB90648064940F2E71200F039FAD4F890
:1035A000A43028461B68BDE870401847C4F40008E2
:1035B000C9F4000870B50546044655F84C3B0E4664
:1035C0001B68984728463146FEF710FC2368C4F86C
:1035D000B86020465B68BDE87040184738B50546BE
:1035E000044655F84C3B1B6898472846FEF70EFCEE
:1035F000236805465B6820469847284638BD38B59D
:103600000546044655F84C3B1B6898472846FEF78C
:1036100019FC236805465B6820469847284638BD54
:103620004C30FEF7FDBB10B54C300C46FEF714FCD9
:10363000204610BD2DE9F3479046024600259A46E4
:103640002B4B42F8083B009502AB01950446894696
:1036500013E90300274B82E80300236148F20703C4
:103660006361254BE561A46122626362BFF36F8FE2
:10367000BFF34F8F04F14C0604F19807656365644E
:1036800084F8485084F84950304629464C2201F0CD
:1036900085FEC4F8A450C4F8B450C4F8B8A03846A5
:1036A000FCF7E6FF2FB1154BC4F89830144BC4F863
:1036B000A43004F1A8052846FCF7DAFF2DB10F4B22
:1036C000C4F8A8300E4BC4F8B430424630464946E0
:1036D000FEF7E2FA3046D4F8B810FEF787FB304622
:1036E00008492246FEF786FB204602B0BDE8F08777
:1036F00020F5000801A090E849350008433500088E
:10370000B8F40008813500084368416970B5044683
:10371000194400F053F8636A04F118052BB9064800
:10372000064940F2E71200F073F9636A28461B6805
:10373000BDE87040184700BFC4F40008C9F4000891
:1037400038B505460C4600F07DF9284600F03CF8F7
:103750006C61286900F059F90119284600F02EF82B
:10376000BDE8384000F098B938B5044604F11805B2
:1037700000F068F9204600F027F82846FCF778FFAB
:103780000DB100236362BDE8384000F085B90368DD
:103790009B681847074B10B50360002343608360A4
:1037A000C360044600F0BAF80349206100F0C0F895
:1037B000204610BD50F500088F37000803460A4622
:1037C0000069191D00F0E1B801460431006900F0FC
:1037D000FDB8000010B5034B03600446FFF7F4FF8B
:1037E000204610BD50F5000838B5B0F9003001335F
:1037F00004460D4604D1064806493A2200F008F96D
:1038000063680DB1E26801E022691B04136038BDF2
:103810009AEA00087FEF000870B50E460446154688
:10382000FDF774FC01360DD020462946FFF7DCFF7A
:1038300020460121FDF784FC20460021BDE87040B0
:10384000FDF77ABC70BD0022FFF7E6BF10B5044655
:10385000013001D110BD0C31B1F900305A1C0BD030
:10386000A342F8D120468968FDF7E8FD20460021F3
:10387000BDE81040FDF710BE0248BDE8104000F062
:1038800029B900BF5CF50008884208B50AD0431C7E
:1038900007D0013106D0044800F01CF94FF0FF308A
:1038A00008BD084608BD00BF6DF50008B1F900303D
:1038B0005A1C05D0834201D1486870470C31F5E7A6
:1038C00018467047421C10B5044607D0FFF7EEFFBC
:1038D000431C044602D1024800F0FCF8204610BD0B
:1038E0007EF50008B1F900305A1C05D0834201D1A1
:1038F000886870470C31F5E718467047421C10B5D0
:10390000044607D0FFF7EEFF431C044602D10248ED
:1039100000F0E0F8204610BD9EF500080048704712
:10392000D0F50008014800F00CB800BFD0F5000841
:1039300038B5036804461B680D46984763681D60E8
:1039400038BD036870B5DB680446984763685A68F9
:1039500023681AB99B68BDE8704018475B68156812
:103960009847281A0028636808DC5A6891685960EB
:103970001B68002BEAD050689847E7E721685A682F
:103980000B691068BDE870401847F8B507460D464A
:103990001C46164600F056F879686C604C682E603C
:1039A000002334B12268B21A002A02DB2346A4683D
:1039B000F7E72BB93B684D601B693046984700E03C
:1039C0009D60AC60BDE8F84000F066B838B50546CB
:1039D0000C4600F037F86A685368A3420BD19B6825
:1039E00053602A6813B9936898470AE01269186807
:1039F000904706E0134623B19A68A242FAD1A26822
:103A00009A60BDE8384000F047B803685B68184723
:103A100070B506460D46144600F014F831462A46A5
:103A200023460348FDF786FCBDE87040FDF72EBC39
:103A3000D8F50008EFF3108000F0010080F00100DD
:103A40007047000038B5FFF7F5FF80F00100C5B200
:103A500072B60C4C23680BB90B4B1D7023680133F5
:103A600004D10A480A493522FFF7D2FF23682BB157
:103A700025B9084806493922FFF7CAFF23680133F0
:103A8000236038BD8C1600209016002009F600082F
:103A90002FF6000872F6000810B50A4C236883B1AF
:103AA000FFF7C8FF20B1084808494A22FFF7B0FFD6
:103AB0002368013B236023681BB9054B1B7803B9BE
:103AC00062B610BD8C16002072F600082FF60008B2
:103AD000901600200FB407B504A951F8040B01910A
:103AE000FDF700FC0120FDF7EFFF38B50446FFF7B6
:103AF000C9FB0546FFF7C6FB401BA042FAD338BD01
:103B00004FF47A735843FFF7F0BF007B7047000013
:103B100038B504460A4B0360002343600D46A1609C
:103B200002730848FCF77EFC25B1074B1A686260F7
:103B30001C6000E065600348FCF774FC204638BD5B
:103B400090F60008981600209416002010B50D4B32
:103B5000036004460C48FCF765FCA3686BB10B4A94
:103B60001368A34202D16368136006E05A68A24258
:103B700001D01346FAE762685A600348FCF752FC2A
:103B8000204610BD90F600089816002094160020DC
:103B900010B50446FFF7DAFF2046FDF7A9FF2046DF
:103BA00010BD000070B506460C480D46FCF73AFC07
:103BB0000B4B1C686CB1A06848B131462A4602F034
:103BC0004DFA20B9A06802F0DBF9A84201D0646880
:103BD000F0E70248FCF726FC204670BD981600204E
:103BE0009416002010B5074B0446002240F8043B11
:103BF000FFF78EFF044B03F108023C332260636041
:103C0000204610BDA8F2000898F6000810B5074B32
:103C100003F108023C330446026040F8043FFFF71A
:103C200095FF2046FDF768FF204610BD98F6000876
:103C3000014B1868704700BFD805002000293DD00F
:103C400070B505460C4608B1836B7BB3B4F90C30F4
:103C50000BB9002070BD2146284600F039F8E36A10
:103C6000064633B1E169284698470028B8BF4FF0AF
:103C7000FF36A3891B061CD4216B41B104F140031C
:103C8000994202D0284600F0A1FA00232363616C18
:103C900021B1284600F09AFA0023636400F0E2F9AB
:103CA0000023A38100F0E0F9304670BD00F0D4F9A4
:103CB000CCE72169284600F089FADDE7002070474B
:103CC000024B01461868FFF7B9BF00BFD8050020B6
:103CD000B1F90C309AB22DE9F0410D46110780463A
:103CE0003CD46A6843F40063002AAB8173DDAC6A9C
:103CF000002C4BD09BB203F48052002192B2D8F832
:103D00000060C8F80010002A69D02A6D5F0705D549
:103D100069682B6B521A0BB1EB6BD21A0023E9695D
:103D20004046A047441C3CD0B5F90C302A692A60B3
:103D300023F400630022AB81DB046A6049D4296B61
:103D4000C8F8006011B305F14003994202D0404623
:103D500000F03CFA00202863BDE8F0812E69AEB186
:103D60002C682E6090070CBF6B690023A41BAB600E
:103D70000AE0234632466F6AE9694046B8470028A0
:103D8000A4EB0004064404DD002CF2DC0020BDE8B6
:103D9000F081AB8943F04003AB814FF0FF30BDE8C9
:103DA000F081D8F800201D2AF3D81A4BD34003F035
:103DB000010383F00104002BEBD0B5F90C30296925
:103DC000296023F40063D9046C60AB81B7D5002A65
:103DD000B5D12865B3E7EA6B002A88DCD6E7012372
:103DE000E9694046A047431C024602D0AB89AC6A51
:103DF0008CE7D8F80030002BF8D01D2B01D0162B03
:103E000002D1C8F80060C1E7AB8943F04003AB8141
:103E1000BDE8F0810100402010B5044682B008B131
:103E2000836B53B1B1F90C0008B902B010BD204644
:103E300002B0BDE81040FFF74BBF019100F00CF954
:103E40000199EFE720B1054B01461868FFF7E4BF81
:103E5000034B0449186800F0BFBD00BFD80500201F
:103E6000DCF60008193E000838B50D4B1D68044605
:103E70000DB1AB6B4BB16368013B002B636008DB9A
:103E800023685A1C2260187838BD284600F0E4F8F0
:103E9000F1E721462846BDE8384001F089BD00BF62
:103EA000D8050020014900F097BD00BF3D3C000847
:103EB0002DE9F04F354B4568C3630024074600F5F4
:103EC0003B7204230321C0F8E412C0F8E822C0F8D2
:103ED000E04283B02C606C60AC606C66EC812C615D
:103EE0006C61AC61AB81214605F15C00082201F0F8
:103EF00055FABE68DFF898B0DFF898A0DFF8989020
:103F0000DFF89880C5F820B001230922C5F824A065
:103F1000C5F82890C5F82C80ED612146F381B28167
:103F200006F15C0034607460B4607466346174617E
:103F3000B4610822019301F031FAFD68F6611220A4
:103F40000222C6F820B0C6F824A0C6F82890C6F809
:103F50002C802146A881EA812C606C60AC606C6684
:103F60002C616C61AC6105F15C00082201F016FA6D
:103F7000019BED61C5F820B0C5F824A0C5F82890D4
:103F8000C5F82C80BB6303B0BDE8F08FA53E0008E8
:103F90000D5C0008355C0008715C0008915C00084D
:103FA00070B568234D1E03FB05F50E4605F174013F
:103FB00000F0E8FD044640B100210C30666005F1D8
:103FC00068022160A06001F0E9F9204670BD00BFE1
:103FD000204B70B51D68AB6B064613B92846FFF73A
:103FE00067FF05F538756B68AC68013B05D521E0C6
:103FF000013B5A1C04F168041CD0B4F90C20002ABF
:10400000F6D1002501234FF6FF72E281A381656698
:104010002560A560656025616561A5612946082266
:1040200004F15C0001F0BAF9256365636564A56479
:10403000204670BD2B680BB11D46D4E704213046E5
:10404000FFF7AEFF286008B10546CCE70C233360CC
:1040500070BD00BFDCF60008836B03B17047FFF74B
:1040600027BF00BF704700BF704700BFF0B51346C1
:1040700083B00F4601AA1946064606F08FFFF0B13D
:1040800005463046FFF7A4FF0446C0B139464FF459
:10409000DB73019A304601F0CFF900281BDB124B8D
:1040A000124F1349134AE362EB05E081A581E461F5
:1040B00027626162A26205D4204603B0F0BD0020F1
:1040C00003B0F0BD304602230022214600F066F91D
:1040D000204603B0F0BD0025FFF7C4FFA581FFF720
:1040E000C3FF2846E9E700BF915C00080D5C0008AB
:1040F000355C0008715C0008024B0A4601461868EE
:10410000FFF7B4BFD8050020084B70B51C68054602
:104110000E4624B1A36B13B92046FFF79DFF32462C
:1041200029462046BDE8704001F09CB9D805002022
:10413000F8B5234F0C460646FDF7D2FCBB685D6818
:1041400025F00305291B01F6EF7121F47F6121F0B1
:104150000F01A1F58054B4F5805F07DB00213046E4
:1041600001F040FCBB682B44984204D03046FDF778
:10417000BBFC0020F8BD6142304601F033FC013049
:104180000DD0104BBA6819682D1B45F0010530465B
:10419000091B55601960FDF7A7FC0120F8BD00213F
:1041A000304601F01FFCBA68831A0F2BDEDD064C87
:1041B0000449246843F00103001B53600860D5E7FD
:1041C000DC050020AC160020E8090020002945D0BD
:1041D0002DE9F0410D468046FDF782FC55F8047C40
:1041E0006A4927F00103A5F10804E2188E685068B7
:1041F000B24220F0030062D0FE0750600BD455F8A5
:10420000087CE41B01F1080EA56875453B446FD09E
:10421000E768EF60BD6015186D68ED0742D543F0A3
:1042200001026260E350B3F5007F18D2DB085A1C2C
:104230004D6851F83270A76001209B1000FA03F31B
:1042400001EBC2001D430838E0604D6041F8324088
:10425000FC604046BDE8F041FDF746BC70475A0A95
:10426000042A53D89A0902F139077F0002F1380570
:1042700001EB870051F827204449083890424DD07F
:10428000516821F003018B4202D292689042F7D12B
:10429000D068E060A2608460D4604046BDE8F04130
:1042A000FDF722BC95683A4FBD4203443FD0D06829
:1042B000E86043F0010285606260E350B3E7FF0706
:1042C000034407D455F8082CA41A1344A068E268E4
:1042D000C26090602F4A126843F001009342606010
:1042E0008C60B6D32C4B40461968FFF721FFB0E72E
:1042F00011184968C90744D49168D268CA60034458
:1043000043F0010091606060E350A2E7142A17D8DF
:1043100002F15C077F0002F15B05A9E7AA104B6878
:10432000012505FA02F213434B600246B1E743F060
:1043300001024C610C61E560A5606260E35088E7B2
:10434000542A06D81A0B02F16F077F0002F16E059E
:104350008EE7B2F5AA7F06D8DA0B02F178077F0064
:1043600002F1770584E740F25450824206D89A0C55
:1043700002F17D077F0002F17C0579E7FE277E25AB
:1043800076E743F001026260E35062E7DC0500205B
:10439000E4050020E4090020A816002000F000B881
:1043A0002DE9F04F0C4691B091461E46054610B1DE
:1043B000836B002B74D0A38903F48473B3F5847FDB
:1043C00076D0D4F82880B8F1000F00F04181012E9A
:1043D0004BD0022E08D03EB116232B604FF0FF3792
:1043E000384611B0BDE8F08F4FF0000A23695746F8
:1043F000002B00F01881B4F90C2040F61A0391B29A
:104400000B4043B949055FD4944B984500F0F780C1
:1044100042F40062A28121462846FFF7FDFC0746D0
:104420000028DBD133464A46E1692846C0470130BF
:10443000D4D0216B41B104F14003994202D0284607
:10444000FFF7C4FE00232363A3892269226023F4BB
:1044500002630021A381616004F15C00082200F086
:104460009DFF384611B0BDE8F08F21462846FFF782
:10447000D3FCA38903F4805292B2002A00F0B580E5
:10448000276D5E075DD4180740F1AD80226823696F
:104490000AB1D21A1744B9444FF0010A0026A7E71F
:1044A000FFF7DAFDA38903F48473B3F5847F88D121
:1044B00021462846FFF7B0FC83E7A3894FF48062CA
:1044C00043F48063A381E264002E43D1CB46BAF16A
:1044D000000F4ED1A389DA0440F1AA80206D6368F1
:1044E000216BC71A002900F0AC80E26BBF1A1F4491
:1044F0002069A36B1B1AFF1A1344BB453FDBFA1854
:104500005A453CD9C7EB0B073844DB1B84E809004C
:1045100041B104F14003994202D02846FFF756FE0C
:1045200000232363A38923F02003A38104F15C000B
:104530000822002100F032FF0027384611B0BDE804
:10454000F08F6268236BBF1A002B4CD0E26B23699B
:10455000BF1AA0E701AAB4F90E10284600F080F8AF
:1045600000287FF458AF059B09EB030BBAF1000F4D
:10457000B0D0216B6368002963D0E26BB7E7E76CCA
:10458000E1697F4207EA0B073A4600232846C04705
:1045900001303FF440AF2369216B23600023636047
:1045A00041B104F14003994202D02846FFF70EFEC4
:1045B00000232363A389BBEB070B23F02003A38114
:1045C000B4D02146284601F069F900287FF423AFD2
:1045D000626893453FF61FAF2368CBEB02025B4452
:1045E00062602360A2E7236955E73346E169284604
:1045F000C047431C07463FF4F1AEA38941E7B4F935
:104600000E100029FFF604AF01AA284600F028F892
:1046100030B9029B03F47043B3F5004F3FF44DAF44
:10462000B4F90C20F4E62146284600F057FAE2E6F9
:1046300001235246E1692846C047431C7FF44FAF2F
:10464000E9E622682069121ABF1A1344002154E7D0
:104650001D232B604FF0FF37C2E600BF715C0008DE
:1046600038B50B46074C0546114618460023236013
:10467000FDF7D2F9431C00D038BD2368002BFBD0D6
:104680002B6038BDA81700209368002B76D02DE949
:10469000F04F8B8985B00C4619070190164629D535
:1046A00022693AB303F002081FFA88F0356800283F
:1046B0002FD04FF00009B44FC846B246B845434624
:1046C0004A4628BF3B460198B8F1000F50D0E16937
:1046D000666AB047002871DDDAF808301B1A814499
:1046E000C0EB0808CAF80830002BE7D1002005B05D
:1046F000BDE8F08F2146019805F02EFC002840F01F
:104700003A81A389356803F002081FFA88F000286F
:10471000CFD113F001095BD14F4602961FB39A0522
:10472000D4F808802CD54745C246C0F0A48013F4C5
:10473000906F40F0B18020685246494600F0CAFDB3
:10474000A0682368C8EB00005344A060236038468B
:10475000029A93681B1A81443F1A9360002BC5D0BC
:10476000A389002FDBD1D5F800906F680835D5E715
:10477000D5F80090D5F8048008359FE700207047F1
:1047800020682369984203D861698F4280F0B7801E
:10479000B84528BFB8464246494600F09BFDA3688D
:1047A0002268C8EB03034244A3602260002B49D176
:1047B00021460198FFF730FB002843D0B4F90C30B4
:1047C00043F040034FF0FF30A38105B0BDE8F08F08
:1047D0008046029082468146B9F1000F2AD0029BA2
:1047E000002B4CD0206823696269C845C34628BFA6
:1047F000CB4698425F4604D9A36813449B4500F317
:104800009080934520DB1346676AE1690198524620
:10481000B847071ED2DDB8EB070823D0B368DB1B0F
:10482000BA44C7EB0909B360002B3FF45FAFB9F19D
:10483000000FD4D10023D5F800A0D5F8049002933E
:104840000835C9E7404683E75A46514600F042FD25
:10485000A2682368CBEB02025B44B8EB0708A260B6
:104860002360DBD121460198FFF7D6FA0028A5D1B5
:10487000CDF80880D2E72068B846BA465CE74A46D9
:104880000A21504600F03CFC00286FD00130012383
:10489000CAEB00080293A5E762692068216902EB70
:1048A0004208C1EB000A08EBD8780AF101004FEA90
:1048B000680838444045424684BF804642465B050E
:1048C00042D51146019800F05DF98346002855D085
:1048D0005246216900F064FCA38923F4906343F0FD
:1048E0008003A381CAEB08030BEB0A00C4F8148011
:1048F000C4F810B02060A360B846BA461CE76FF059
:104900000043BB4228BF3B464A4693FBF1F3019864
:10491000666A01FB03F3E169B04700283FF718AF6F
:104920004CE71A465146039300F0D4FC2268039BDF
:1049300001981A4422602146FFF76EFA039B002873
:104940007FF43CAF1F4666E7019800F0ADFD83465B
:104950000028C7D1019D21692846FFF737FCB4F92B
:104960000C300C2223F080032A6029E7012309F18F
:104970000108029336E74FF0FF30B8E6019A0C23A6
:104980001360B4F90C301BE700FCFF7F2DE9F04108
:1049900010F538771BD0884600267D68BC68013D3D
:1049A0000FD4A389012B05F1FF3506D9B4F90E30D8
:1049B0000133204601D0C04706436B1C04F1680454
:1049C000EFD13F68002FE8D13046BDE8F0813E4688
:1049D0003046BDE8F08100BF2DE9F84310F5387787
:1049E0001FD0884606464FF000097D68BC68013D2F
:1049F00011D4A389012B05F1FF3508D9B4F90E3084
:104A000001332146304602D0C04749EA00096B1CF9
:104A100004F16804EDD13F68002FE6D14846BDE8B7
:104A2000F883B9464846BDE8F88300BF70B50F4E1D
:104A30000F4D761BB61018BF002405D0013455F871
:104A4000043B9847A642F9D10A4E0B4D761B09F05C
:104A5000F1FFB61018BF002406D0013455F8043B0E
:104A60009847A642F9D170BD70BD00BF580B002019
:104A7000580B0020600B0020580B002070B50D462D
:104A8000B1F90E10002990B014461E4614DB01AA9D
:104A9000FFF7E6FD00280FDB029A02F47042A2F550
:104AA0000052B2FA82F252094FF480634FF4006070
:104AB0003260236010B070BDA88900F0800082B21F
:104AC000002030601AB14023236010B070BD4FF455
:104AD00080631046236010B070BD00BF8A899207C2
:104AE0000B4606D501F1430201211A601A61596192
:104AF0007047F0B583B001AB6A460C460546FFF738
:104B0000BDFF00990646284600F03CF8B4F90C3089
:104B1000D0B1019A124F0099EF6343F08003A38153
:104B20002060206161611AB93343A38103B0F0BDF5
:104B30002846B4F90E1006F06BFAB4F90C300028D0
:104B4000F2D043F00103EFE79A05EFD404F14302FA
:104B500043F002030121A381226022616161E5E744
:104B6000A53E0008024B0146186800F00BB800BFD4
:104B7000D8050020024B01461868FFF727BB00BF8D
:104B8000D80500202DE9F04F01F10B05162D83B05B
:104B9000064640F29F8035F0070500F1BF80A9422C
:104BA00000F2BC80FCF79CFFB5F5FC7FC0F09C8256
:104BB0006B0A00F0BA80042B00F28381A80900F18F
:104BC000390E4FEA4E033830C44F07EB8303A3F18D
:104BD00008015C68A14207D1ACE0002A80F2AC80F9
:104BE000E468A14200F0A680636823F003035A1B27
:104BF0000F2AF2DDB9493C6901F1080E744500F055
:104C0000B381636823F003035A1B0F2A00F39981D1
:104C1000002AC1F814E0C1F810E080F29E80B3F5DC
:104C2000007F80F06781DB0803F1010C01229B10FB
:104C300002FA03F34A6851F83C80C4F8088001EB9B
:104C4000CC091A43A9F10803E3604A6041F83C40EB
:104C5000C8F80C40831001249C40944200F28A80E2
:104C6000144206D120F003006400144200F1040055
:104C7000FAD007EBC009CC468046DCF80C108C4516
:104C800007D173E1002A80F28181C9688C4500F068
:104C90006D814B6823F003035A1B0F2AF2DD0C468B
:104CA000D1F80CC054F8088F4B1945F001054D6040
:104CB00042F00101C8F80CC03046CCF808807B6196
:104CC0003B61C3F80CE0C3F808E059609A50FCF768
:104CD0000BFF1FE0102921D8FCF702FF1025062347
:104CE00002207E4F07EB8303A3F108025C68944225
:104CF00000F045816368E168A56823F0030323445D
:104D000030465A68E96042F001028D605A60FCF753
:104D1000EBFE0834204603B0BDE8F08F00240C23DE
:104D20002046336003B0BDE8F08F80234FF0400E83
:104D30003F2049E770465DE72344E1685A68A5686B
:104D400042F00102E96030468D605A60FCF7CCFE0B
:104D50000834204603B0BDE8F08F234430465A683B
:104D600042F001025A60FCF7BFFE0834204603B04F
:104D7000BDE8F08FBC68636823F00308A84504D33E
:104D8000C5EB08030F2B00F38C80554BDFF86091C7
:104D90001A68D9F8003001332A4404EB080A00F0FD
:104DA000608102F580520F3222F47F6222F00F02FE
:104DB00011463046019200F015FEB0F1FF3F8346E8
:104DC000019A00F05881824500F2FC80454B196839
:104DD000DA451144196000F05381D9F80000DFF87A
:104DE00010E101301BBFCAEB0B0A5144CEF800B0F2
:104DF00019601BF0070100F01781C1F10800C1F52F
:104E00008051834408315A44C2F30B02C2EB0109BA
:104E100049463046019300F0E5FD431C019B00F03C
:104E20003F81CBEB00024A4442F001021968C7F807
:104E300008B04944BC42CBF804201960DFF8A490C4
:104E400016D0B8F10F0F40F2FD806268A8F10C0394
:104E500023F00703E01802F001024FF0050E1A4399
:104E60000F2B6260C0F804E0C0F808E000F21C817B
:104E70001D4BBC681A68914288BF19601B4B1A68A9
:104E80009142626888BF196022F003029542A2EB4A
:104E9000050301D80F2B04DC3046FCF725FE002467
:104EA00038E7621943F0010345F0010565603046BB
:104EB000BA605360FCF718FE0834204603B0BDE822
:104EC000F08F142B71D9542B00F2A480280B00F121
:104ED0006F0E4FEA4E036E3076E600BFDC05002011
:104EE000A8160020AC160020A4160020A016002052
:104EF000E80900205A0A042A5ED9142A00F2B38075
:104F000002F15C0149005B3207EB810C57F821107C
:104F1000DFF8DC81ACF1080C8C4500F088804A6831
:104F200022F00302934202D289688C45F7D1D1F86E
:104F30000CC07A68C4F80CC0A160CCF80840CC6002
:104F400088E6631942F0010745F0010565603046C7
:104F50004B610B61C3F80CE0C3F808E05F609A5046
:104F60000834FCF7C1FDD5E64A6873E608F101088C
:104F700018F0030F0CF1080C7FF47FAE30E0DC6812
:104F8000A34208BF02303FF435AEB3E60B440C46F3
:104F90005A68C96854F8085F42F001025A60304606
:104FA000E9608D60FCF7A0FDB4E603F15C0E03F14F
:104FB0005B004FEA4E0307E69A0902F13901490006
:104FC0003832A1E7BC424A4B3FF400AF9C686268AC
:104FD00022F003025AE759F80839994540F08280D7
:104FE00010F0030F00F1FF30F5D17B6823EA0403D2
:104FF0007B6064009C423FF6BDAE002C3FF4BAAE2D
:105000001C4240467FF435AE64001C4200F10400AF
:10501000FAD02EE6B3F5AA7F18D8E80B00F1780E87
:105020004FEA4E037730CFE54FF48051EBE6012194
:10503000D8F80430921001FA02F21A43C8F804209A
:10504000614677E70123CBF8043025E740F254525C
:10505000934220D8A80C00F17D0E4FEA4E037C301D
:10506000B2E51032A4E6542A26D81A0B02F16F01D9
:1050700049006E3248E7BC68626822F0030205E727
:10508000CAF30B0000287FF4A8AE4244BB6842F08C
:1050900001025A60ECE6FE234FF07F0E7E2093E57E
:1050A00001224FF00009C1E604F108013046FFF784
:1050B0008DF8D9F80010DBE6B2F5AA7F05D8DA0B37
:1050C00002F17801490077321EE740F254518A42DA
:1050D00005D89A0C02F17D0149007C3214E7FE21CB
:1050E0007E2211E77B6884E7E808431C5B00F8E553
:1050F000DC050020000000000000000000000000AF
:1051000001F0FF01102A2BDB10F0070F08D010F878
:10511000013B013A8B422DD010F0070F42B3F6D17C
:10512000F0B441EA012141EA014122F007047FF095
:1051300000070023F0E80256083C85EA010586EAEC
:10514000010685FA47F5A3FA87F586FA47F6A5FA28
:1051500087F68EB9EED1F0BC01F0FF0102F0070234
:1051600032B110F8013B013A83EA010313B1F8D1DF
:105170000020704701387047002D06BF35460338C0
:10518000073815F0010F07D1013015F4807F02BFF9
:10519000013015F4C03F0130F0BC0138704700BF4A
:1051A000844641EA000313F003036DD1403A41D332
:1051B00051F8043B40F8043B51F8043B40F8043BF1
:1051C00051F8043B40F8043B51F8043B40F8043BE1
:1051D00051F8043B40F8043B51F8043B40F8043BD1
:1051E00051F8043B40F8043B51F8043B40F8043BC1
:1051F00051F8043B40F8043B51F8043B40F8043BB1
:1052000051F8043B40F8043B51F8043B40F8043BA0
:1052100051F8043B40F8043B51F8043B40F8043B90
:1052200051F8043B40F8043B51F8043B40F8043B80
:10523000403ABDD2303211D351F8043B40F8043B20
:1052400051F8043B40F8043B51F8043B40F8043B60
:1052500051F8043B40F8043B103AEDD20C3205D330
:1052600051F8043B40F8043B043AF9D2043208D028
:10527000D2071CBF11F8013B00F8013B01D30B889A
:1052800003806046704700BF082A13D38B078DD078
:1052900010F003038AD0C3F10403D21ADB071CBF4A
:1052A00011F8013B00F8013B80D331F8023B20F8B4
:1052B000023B7BE7043AD9D3013A11F8013B00F8ED
:1052C000013BF9D20B7803704B7843708B78837075
:1052D000604670478842F0B50DD98B1898420AD2C3
:1052E0008118002A51D09A1A13F8014D01F8014D86
:1052F0009342F9D1F0BD0F2A48D941EA00039B0738
:1053000046D100F1100401F11003154653F8106C5A
:1053100044F8106C53F80C6C44F80C6C53F8086C9F
:1053200044F8086C103D53F8046C44F8046C0F2DDD
:1053300003F1100304F11004E8D8A2F1100323F0E4
:105340000F0302F00F0E1033BEF1030F1944034494
:1053500021D91E1F0D467446043C55F8047B46F8BF
:10536000047F032CF8D8AEF1040424F003040434C1
:105370002344214402F0030262B1013B0A4411F8C4
:10538000014B03F8014F8A42F9D1F0BD0346F3E720
:105390000346F2E7F0BD7246EEE700BF70B4840743
:1053A00046D0541E002A41D0CDB2034602E0621E10
:1053B000E4B3144603F8015B9A07F8D1032C2ED905
:1053C000CDB245EA05250F2C45EA054519D903F16B
:1053D00010022646103E0F2E42F8105C42F80C5C7C
:1053E00042F8085C42F8045C02F11002F2D8A4F121
:1053F000100222F00F0204F00F041032032C1344A9
:105400000DD91E462246043A032A46F8045BFAD810
:10541000221F22F003020432134404F003042CB1CF
:10542000C9B21C4403F8011BA342FBD170BC7047F6
:1054300014460346C2E700BF70B50D46084C11463E
:1054400006461A46284600232360FCF773FB431CDC
:1054500000D070BD2368002BFBD0336070BD00BF4F
:10546000A817002070B50D461446064618B1836B88
:105470000BB9FEF7F1FDA368013B002BA36005DB30
:10548000E8B223685A1C22601D7070BDA269934265
:1054900002DBE8B20A28F4D1224629463046BDE8AC
:1054A000704004F0EDBC00BF2DE9F04F174683B00B
:1054B000002900F0C1800E46814607F10B05FCF77C
:1054C0000FFB56F804EC162D2EF00304A6F1080885
:1054D00040D810221546AF4241D8944275DAC94BE4
:1054E000996808EB04008842416800F0D98021F0F7
:1054F000010303445B68DB077DD51EF0010F35D047
:1055000039464846FFF73EFB0746E0B156F8043CF3
:1055100023F001034344A0F108029A4200F04481C1
:10552000221F242A00F23181132A00F2048103464B
:105530003246116819605168596092689A60314624
:105540004846FEF743FE4846FCF7CEFA384603B01D
:10555000BDE8F08F25F00705002D2A46BBDA0C23A5
:105560000020C9F8003003B0BDE8F08F56F8083CC1
:10557000C3EB080ADAF8043023F0030C04EB0C0345
:105580009342BDDB5746DAF80C1057F8080F221F7C
:10559000242AC160886000F21781132A40F2128128
:1055A0003168CAF808107168CAF80C101B2A00F29A
:1055B0002B8108360AF11002316811607168516060
:1055C000B16891603E461C46D046631B0F2B1DD828
:1055D000D8F8043003F0010323434444C8F80430EE
:1055E000636843F0010363604846FCF77DFA304688
:1055F00003B0BDE8F08F21F003012144914221DB8B
:10560000C36882680C46D3609A60DEE7D8F804204D
:1056100008EB050102F00102154343F001020B44BF
:10562000C8F804504A605A6842F0010208315A60D2
:105630004846FEF7CBFDD7E7114603B0BDE8F04F73
:10564000FFF7A0BA1EF0010F7FF45AAF56F8083CDE
:10565000C3EB080ADAF8043023F0030C01EB0C0E5C
:1056600096458BDBC36882685746D3609A6057F8CB
:10567000081FDAF80C30CB60221F242A996000F250
:105680009980132A62D93368CAF808307368CAF857
:105690000C301B2A00F2A08008360AF1100356E0F5
:1056A00021F0030BA34405F11000834559DA1EF0E5
:1056B000010F7FF425AF56F8081CC1EB080ADAF891
:1056C000041021F0030CE34458453FF757AF574609
:1056D000DAF80C1057F8080F221F242AC1608860DE
:1056E00000F2B480132A40F2A5803168CAF808108D
:1056F0007168CAF80C101B2A00F2AF8008360AF154
:1057000010023168116071685160B16891600AEBF4
:105710000501C5EB0B0242F0010299604A60DAF81C
:10572000043003F001031D434846CAF80450FCF757
:10573000DBF938465CE733680360736843601B2A13
:1057400027D800F1080306F10802F2E63B4632686A
:105750001A6072685A60B2689A603E467446D046D3
:1057600033E708EB0501C5EB0B0B4BF00102996029
:105770004A6056F8043C03F001031D43484646F8CE
:10578000045CFCF7B1F9304632E73146FFF7A2FD81
:10579000D5E6B3688360F368C360242A28D000F19B
:1057A000100306F11002C4E650F8043C23F0030392
:1057B0001C440AE7314638467446D046FFF78AFD56
:1057C0003E4602E73A46F7E6314638461C46D046A2
:1057D000FFF780FD3E46F8E6B368CAF81030F3687C
:1057E000CAF81430242A1BD010360AF11803AEE789
:1057F000336903617369436106F1180200F118030C
:1058000097E600BFDC050020B168CAF81010F16807
:10581000CAF81410242A0FD010360AF11802CBE669
:105820003369CAF818307369CAF81C3018360AF19F
:1058300020038CE73A4664E73269CAF81820726997
:10584000CAF81C2018360AF12002B5E6314638465F
:105850000193FFF73FFD019B59E7B168CAF81010AB
:10586000F168CAF81410242A03D010360AF118027D
:1058700047E73269CAF818207269CAF81C2018363E
:105880000AF120023DE700BF838903F00903092BD9
:1058900001D000207047FEF7D5BA00BFF8B50C461E
:1058A000054610B1836B002B45D0B4F90C309AB289
:1058B000970407D4626E43F4005322F400526266E8
:1058C000A3819AB200219606616031D4500722D597
:1058D000216B61B104F14003994202D02846FEF7E2
:1058E00075FCE36B636000202063002B3FD12369CC
:1058F000002B4CD0B4F90C70BEB2B3071ED1226994
:10590000226028466369256AE169A847002860602B
:1059100009DD0020F8BDD1063ED512072AD443F098
:105920000403A381E3E7A38919D143F02003A381F2
:105930004FF0FF30F8BDFEF78FFBB6E71A4B1B495F
:1059400018680123A38106F00906FFF71FF8092E46
:10595000A781D4D121462846FEF7BAF9CFE7002225
:1059600043F04003A38162604FF0FF30F8BDA36BAA
:105970002360F8BD21462846FEF74EFA0028D7D10D
:10598000B4F90C30A060A06123F00803C7E72146FA
:105990002846FFF7A3F8ADE743F0400309222A6049
:1059A0004FF0FF30A381F8BDDCF6000889580008ED
:1059B00038B50C46054608B1836B63B128462146CD
:1059C000FFF76CFF50B994E80C00013B511C84E8D0
:1059D0000A00107838BDFEF73FFBEFE74FF0FF30CD
:1059E00038BD00BF38B5074C002305460846236084
:1059F000FCF734F8431C00D038BD2368002BFBD0E3
:105A00002B6038BDA817002000290CBF02220022FD
:105A10004FF4806300F000B82DE9F043514C256845
:105A200083B004460F4690461E4615B1AB6B002B63
:105A300079D0B8F1020F04D0B8F1010F7FD8002E51
:105A40007DDB21462846FEF7E7F9216B41B104F1E1
:105A50004003994202D02846FEF7B8FB0023236397
:105A6000B4F90C300022A26162601A0654D423F407
:105A70004A6323F00303B8F1020FA38139D001ABCD
:105A80006A4621462846FEF7F9FFA3891843A081FC
:105A900026B327B3AB6B002B4DD0009BB4F90C00A1
:105AA00027609E421CBF40F40060A081B8F1010F46
:105AB00008BF40F0010083B208BFA08103F00800D6
:105AC00080B22761666118B313F001002FD0002067
:105AD0007642A661A06003B0BDE8F083009E304628
